{
  "_format": "hh-sol-artifact-1",
  "contractName": "BlossomNFT",
  "sourceName": "contracts/BlossomNFT.sol",
  "abi": [
    {
      "inputs": [],
      "stateMutability": "nonpayable",
      "type": "constructor"
    },
    {
      "inputs": [
        {
          "internalType": "address",
          "name": "sender",
          "type": "address"
        },
        {
          "internalType": "uint256",
          "name": "tokenId",
          "type": "uint256"
        },
        {
          "internalType": "address",
          "name": "owner",
          "type": "address"
        }
      ],
      "name": "ERC721IncorrectOwner",
      "type": "error"
    },
    {
      "inputs": [
        {
          "internalType": "address",
          "name": "operator",
          "type": "address"
        },
        {
          "internalType": "uint256",
          "name": "tokenId",
          "type": "uint256"
        }
      ],
      "name": "ERC721InsufficientApproval",
      "type": "error"
    },
    {
      "inputs": [
        {
          "internalType": "address",
          "name": "approver",
          "type": "address"
        }
      ],
      "name": "ERC721InvalidApprover",
      "type": "error"
    },
    {
      "inputs": [
        {
          "internalType": "address",
          "name": "operator",
          "type": "address"
        }
      ],
      "name": "ERC721InvalidOperator",
      "type": "error"
    },
    {
      "inputs": [
        {
          "internalType": "address",
          "name": "owner",
          "type": "address"
        }
      ],
      "name": "ERC721InvalidOwner",
      "type": "error"
    },
    {
      "inputs": [
        {
          "internalType": "address",
          "name": "receiver",
          "type": "address"
        }
      ],
      "name": "ERC721InvalidReceiver",
      "type": "error"
    },
    {
      "inputs": [
        {
          "internalType": "address",
          "name": "sender",
          "type": "address"
        }
      ],
      "name": "ERC721InvalidSender",
      "type": "error"
    },
    {
      "inputs": [
        {
          "internalType": "uint256",
          "name": "tokenId",
          "type": "uint256"
        }
      ],
      "name": "ERC721NonexistentToken",
      "type": "error"
    },
    {
      "inputs": [
        {
          "internalType": "address",
          "name": "owner",
          "type": "address"
        }
      ],
      "name": "OwnableInvalidOwner",
      "type": "error"
    },
    {
      "inputs": [
        {
          "internalType": "address",
          "name": "account",
          "type": "address"
        }
      ],
      "name": "OwnableUnauthorizedAccount",
      "type": "error"
    },
    {
      "anonymous": false,
      "inputs": [
        {
          "indexed": true,
          "internalType": "address",
          "name": "owner",
          "type": "address"
        },
        {
          "indexed": true,
          "internalType": "address",
          "name": "approved",
          "type": "address"
        },
        {
          "indexed": true,
          "internalType": "uint256",
          "name": "tokenId",
          "type": "uint256"
        }
      ],
      "name": "Approval",
      "type": "event"
    },
    {
      "anonymous": false,
      "inputs": [
        {
          "indexed": true,
          "internalType": "address",
          "name": "owner",
          "type": "address"
        },
        {
          "indexed": true,
          "internalType": "address",
          "name": "operator",
          "type": "address"
        },
        {
          "indexed": false,
          "internalType": "bool",
          "name": "approved",
          "type": "bool"
        }
      ],
      "name": "ApprovalForAll",
      "type": "event"
    },
    {
      "anonymous": false,
      "inputs": [
        {
          "indexed": false,
          "internalType": "uint256",
          "name": "_fromTokenId",
          "type": "uint256"
        },
        {
          "indexed": false,
          "internalType": "uint256",
          "name": "_toTokenId",
          "type": "uint256"
        }
      ],
      "name": "BatchMetadataUpdate",
      "type": "event"
    },
    {
      "anonymous": false,
      "inputs": [
        {
          "indexed": false,
          "internalType": "uint256",
          "name": "_tokenId",
          "type": "uint256"
        }
      ],
      "name": "MetadataUpdate",
      "type": "event"
    },
    {
      "anonymous": false,
      "inputs": [
        {
          "indexed": true,
          "internalType": "address",
          "name": "previousOwner",
          "type": "address"
        },
        {
          "indexed": true,
          "internalType": "address",
          "name": "newOwner",
          "type": "address"
        }
      ],
      "name": "OwnershipTransferred",
      "type": "event"
    },
    {
      "anonymous": false,
      "inputs": [
        {
          "indexed": true,
          "internalType": "address",
          "name": "from",
          "type": "address"
        },
        {
          "indexed": true,
          "internalType": "address",
          "name": "to",
          "type": "address"
        },
        {
          "indexed": true,
          "internalType": "uint256",
          "name": "tokenId",
          "type": "uint256"
        }
      ],
      "name": "Transfer",
      "type": "event"
    },
    {
      "inputs": [
        {
          "internalType": "address",
          "name": "to",
          "type": "address"
        },
        {
          "internalType": "uint256",
          "name": "tokenId",
          "type": "uint256"
        }
      ],
      "name": "approve",
      "outputs": [],
      "stateMutability": "nonpayable",
      "type": "function"
    },
    {
      "inputs": [
        {
          "internalType": "address",
          "name": "owner",
          "type": "address"
        }
      ],
      "name": "balanceOf",
      "outputs": [
        {
          "internalType": "uint256",
          "name": "",
          "type": "uint256"
        }
      ],
      "stateMutability": "view",
      "type": "function"
    },
    {
      "inputs": [
        {
          "internalType": "uint256",
          "name": "tokenId",
          "type": "uint256"
        }
      ],
      "name": "getApproved",
      "outputs": [
        {
          "internalType": "address",
          "name": "",
          "type": "address"
        }
      ],
      "stateMutability": "view",
      "type": "function"
    },
    {
      "inputs": [
        {
          "internalType": "address",
          "name": "owner",
          "type": "address"
        },
        {
          "internalType": "address",
          "name": "operator",
          "type": "address"
        }
      ],
      "name": "isApprovedForAll",
      "outputs": [
        {
          "internalType": "bool",
          "name": "",
          "type": "bool"
        }
      ],
      "stateMutability": "view",
      "type": "function"
    },
    {
      "inputs": [
        {
          "internalType": "string",
          "name": "tokenURI",
          "type": "string"
        }
      ],
      "name": "mint",
      "outputs": [],
      "stateMutability": "nonpayable",
      "type": "function"
    },
    {
      "inputs": [],
      "name": "name",
      "outputs": [
        {
          "internalType": "string",
          "name": "",
          "type": "string"
        }
      ],
      "stateMutability": "view",
      "type": "function"
    },
    {
      "inputs": [],
      "name": "nextTokenId",
      "outputs": [
        {
          "internalType": "uint256",
          "name": "",
          "type": "uint256"
        }
      ],
      "stateMutability": "view",
      "type": "function"
    },
    {
      "inputs": [],
      "name": "owner",
      "outputs": [
        {
          "internalType": "address",
          "name": "",
          "type": "address"
        }
      ],
      "stateMutability": "view",
      "type": "function"
    },
    {
      "inputs": [
        {
          "internalType": "uint256",
          "name": "tokenId",
          "type": "uint256"
        }
      ],
      "name": "ownerOf",
      "outputs": [
        {
          "internalType": "address",
          "name": "",
          "type": "address"
        }
      ],
      "stateMutability": "view",
      "type": "function"
    },
    {
      "inputs": [],
      "name": "renounceOwnership",
      "outputs": [],
      "stateMutability": "nonpayable",
      "type": "function"
    },
    {
      "inputs": [
        {
          "internalType": "address",
          "name": "from",
          "type": "address"
        },
        {
          "internalType": "address",
          "name": "to",
          "type": "address"
        },
        {
          "internalType": "uint256",
          "name": "tokenId",
          "type": "uint256"
        }
      ],
      "name": "safeTransferFrom",
      "outputs": [],
      "stateMutability": "nonpayable",
      "type": "function"
    },
    {
      "inputs": [
        {
          "internalType": "address",
          "name": "from",
          "type": "address"
        },
        {
          "internalType": "address",
          "name": "to",
          "type": "address"
        },
        {
          "internalType": "uint256",
          "name": "tokenId",
          "type": "uint256"
        },
        {
          "internalType": "bytes",
          "name": "data",
          "type": "bytes"
        }
      ],
      "name": "safeTransferFrom",
      "outputs": [],
      "stateMutability": "nonpayable",
      "type": "function"
    },
    {
      "inputs": [
        {
          "internalType": "address",
          "name": "operator",
          "type": "address"
        },
        {
          "internalType": "bool",
          "name": "approved",
          "type": "bool"
        }
      ],
      "name": "setApprovalForAll",
      "outputs": [],
      "stateMutability": "nonpayable",
      "type": "function"
    },
    {
      "inputs": [
        {
          "internalType": "bytes4",
          "name": "interfaceId",
          "type": "bytes4"
        }
      ],
      "name": "supportsInterface",
      "outputs": [
        {
          "internalType": "bool",
          "name": "",
          "type": "bool"
        }
      ],
      "stateMutability": "view",
      "type": "function"
    },
    {
      "inputs": [],
      "name": "symbol",
      "outputs": [
        {
          "internalType": "string",
          "name": "",
          "type": "string"
        }
      ],
      "stateMutability": "view",
      "type": "function"
    },
    {
      "inputs": [
        {
          "internalType": "uint256",
          "name": "tokenId",
          "type": "uint256"
        }
      ],
      "name": "tokenURI",
      "outputs": [
        {
          "internalType": "string",
          "name": "",
          "type": "string"
        }
      ],
      "stateMutability": "view",
      "type": "function"
    },
    {
      "inputs": [
        {
          "internalType": "address",
          "name": "from",
          "type": "address"
        },
        {
          "internalType": "address",
          "name": "to",
          "type": "address"
        },
        {
          "internalType": "uint256",
          "name": "tokenId",
          "type": "uint256"
        }
      ],
      "name": "transferFrom",
      "outputs": [],
      "stateMutability": "nonpayable",
      "type": "function"
    },
    {
      "inputs": [
        {
          "internalType": "address",
          "name": "newOwner",
          "type": "address"
        }
      ],
      "name": "transferOwnership",
      "outputs": [],
      "stateMutability": "nonpayable",
      "type": "function"
    }
  ],
  "bytecode": "0x60806040523480156200001157600080fd5b50336040518060400160405280600a81526020017f426c6f73736f6d4e4654000000000000000000000000000000000000000000008152506040518060400160405280600581526020017f424c4f4f4d000000000000000000000000000000000000000000000000000000815250816000908162000090919062000472565b508060019081620000a2919062000472565b505050600073ffffffffffffffffffffffffffffffffffffffff168173ffffffffffffffffffffffffffffffffffffffff16036200011a5760006040517f1e4fbdf70000000000000000000000000000000000000000000000000000000081526004016200011191906200059e565b60405180910390fd5b6200012b816200013260201b60201c565b50620005bb565b6000600760009054906101000a900473ffffffffffffffffffffffffffffffffffffffff16905081600760006101000a81548173ffffffffffffffffffffffffffffffffffffffff021916908373ffffffffffffffffffffffffffffffffffffffff1602179055508173ffffffffffffffffffffffffffffffffffffffff168173ffffffffffffffffffffffffffffffffffffffff167f8be0079c531659141344cd1fd0a4f28419497f9722a3daafe3b4186f6b6457e060405160405180910390a35050565b600081519050919050565b7f4e487b7100000000000000000000000000000000000000000000000000000000600052604160045260246000fd5b7f4e487b7100000000000000000000000000000000000000000000000000000000600052602260045260246000fd5b600060028204905060018216806200027a57607f821691505b60208210810362000290576200028f62000232565b5b50919050565b60008190508160005260206000209050919050565b60006020601f8301049050919050565b600082821b905092915050565b600060088302620002fa7fffffffffffffffffffffffffffffffffffffffffffffffffffffffffffffffff82620002bb565b620003068683620002bb565b95508019841693508086168417925050509392505050565b6000819050919050565b6000819050919050565b6000620003536200034d62000347846200031e565b62000328565b6200031e565b9050919050565b6000819050919050565b6200036f8362000332565b620003876200037e826200035a565b848454620002c8565b825550505050565b600090565b6200039e6200038f565b620003ab81848462000364565b505050565b5b81811015620003d357620003c760008262000394565b600181019050620003b1565b5050565b601f8211156200042257620003ec8162000296565b620003f784620002ab565b8101602085101562000407578190505b6200041f6200041685620002ab565b830182620003b0565b50505b505050565b600082821c905092915050565b6000620004476000198460080262000427565b1980831691505092915050565b600062000462838362000434565b9150826002028217905092915050565b6200047d82620001f8565b67ffffffffffffffff81111562000499576200049862000203565b5b620004a5825462000261565b620004b2828285620003d7565b600060209050601f831160018114620004ea5760008415620004d5578287015190505b620004e1858262000454565b86555062000551565b601f198416620004fa8662000296565b60005b828110156200052457848901518255600182019150602085019450602081019050620004fd565b8683101562000544578489015162000540601f89168262000434565b8355505b6001600288020188555050505b505050505050565b600073ffffffffffffffffffffffffffffffffffffffff82169050919050565b6000620005868262000559565b9050919050565b620005988162000579565b82525050565b6000602082019050620005b560008301846200058d565b92915050565b61267b80620005cb6000396000f3fe608060405234801561001057600080fd5b50600436106101165760003560e01c806375794a3c116100a2578063b88d4fde11610071578063b88d4fde146102cd578063c87b56dd146102e9578063d85d3d2714610319578063e985e9c514610335578063f2fde38b1461036557610116565b806375794a3c146102575780638da5cb5b1461027557806395d89b4114610293578063a22cb465146102b157610116565b806323b872dd116100e957806323b872dd146101b557806342842e0e146101d15780636352211e146101ed57806370a082311461021d578063715018a61461024d57610116565b806301ffc9a71461011b57806306fdde031461014b578063081812fc14610169578063095ea7b314610199575b600080fd5b61013560048036038101906101309190611ae6565b610381565b6040516101429190611b2e565b60405180910390f35b6101536103e2565b6040516101609190611bd9565b60405180910390f35b610183600480360381019061017e9190611c31565b610474565b6040516101909190611c9f565b60405180910390f35b6101b360048036038101906101ae9190611ce6565b610490565b005b6101cf60048036038101906101ca9190611d26565b6104a6565b005b6101eb60048036038101906101e69190611d26565b6105a8565b005b61020760048036038101906102029190611c31565b6105c8565b6040516102149190611c9f565b60405180910390f35b61023760048036038101906102329190611d79565b6105da565b6040516102449190611db5565b60405180910390f35b610255610694565b005b61025f6106a8565b60405161026c9190611db5565b60405180910390f35b61027d6106ae565b60405161028a9190611c9f565b60405180910390f35b61029b6106d8565b6040516102a89190611bd9565b60405180910390f35b6102cb60048036038101906102c69190611dfc565b61076a565b005b6102e760048036038101906102e29190611f71565b610780565b005b61030360048036038101906102fe9190611c31565b6107a5565b6040516103109190611bd9565b60405180910390f35b610333600480360381019061032e9190612095565b6108b8565b005b61034f600480360381019061034a91906120de565b6108ef565b60405161035c9190611b2e565b60405180910390f35b61037f600480360381019061037a9190611d79565b610983565b005b6000634906490660e01b7bffffffffffffffffffffffffffffffffffffffffffffffffffffffff1916827bffffffffffffffffffffffffffffffffffffffffffffffffffffffff191614806103db57506103da82610a09565b5b9050919050565b6060600080546103f19061214d565b80601f016020809104026020016040519081016040528092919081815260200182805461041d9061214d565b801561046a5780601f1061043f5761010080835404028352916020019161046a565b820191906000526020600020905b81548152906001019060200180831161044d57829003601f168201915b5050505050905090565b600061047f82610aeb565b5061048982610b73565b9050919050565b6104a2828261049d610bb0565b610bb8565b5050565b600073ffffffffffffffffffffffffffffffffffffffff168273ffffffffffffffffffffffffffffffffffffffff16036105185760006040517f64a0ae9200000000000000000000000000000000000000000000000000000000815260040161050f9190611c9f565b60405180910390fd5b600061052c8383610527610bb0565b610bca565b90508373ffffffffffffffffffffffffffffffffffffffff168173ffffffffffffffffffffffffffffffffffffffff16146105a2578382826040517f64283d7b0000000000000000000000000000000000000000000000000000000081526004016105999392919061217e565b60405180910390fd5b50505050565b6105c383838360405180602001604052806000815250610780565b505050565b60006105d382610aeb565b9050919050565b60008073ffffffffffffffffffffffffffffffffffffffff168273ffffffffffffffffffffffffffffffffffffffff160361064d5760006040517f89c62b640000000000000000000000000000000000000000000000000000000081526004016106449190611c9f565b60405180910390fd5b600360008373ffffffffffffffffffffffffffffffffffffffff1673ffffffffffffffffffffffffffffffffffffffff168152602001908152602001600020549050919050565b61069c610de4565b6106a66000610e6b565b565b60085481565b6000600760009054906101000a900473ffffffffffffffffffffffffffffffffffffffff16905090565b6060600180546106e79061214d565b80601f01602080910402602001604051908101604052809291908181526020018280546107139061214d565b80156107605780601f1061073557610100808354040283529160200191610760565b820191906000526020600020905b81548152906001019060200180831161074357829003601f168201915b5050505050905090565b61077c610775610bb0565b8383610f31565b5050565b61078b8484846104a6565b61079f610796610bb0565b858585856110a0565b50505050565b60606107b082610aeb565b5060006006600084815260200190815260200160002080546107d19061214d565b80601f01602080910402602001604051908101604052809291908181526020018280546107fd9061214d565b801561084a5780601f1061081f5761010080835404028352916020019161084a565b820191906000526020600020905b81548152906001019060200180831161082d57829003601f168201915b50505050509050600061085b611251565b905060008151036108705781925050506108b3565b6000825111156108a557808260405160200161088d9291906121f1565b604051602081830303815290604052925050506108b3565b6108ae84611268565b925050505b919050565b600060085490506108c933826112d1565b6108d381836112ef565b600860008154809291906108e690612244565b91905055505050565b6000600560008473ffffffffffffffffffffffffffffffffffffffff1673ffffffffffffffffffffffffffffffffffffffff16815260200190815260200160002060008373ffffffffffffffffffffffffffffffffffffffff1673ffffffffffffffffffffffffffffffffffffffff16815260200190815260200160002060009054906101000a900460ff16905092915050565b61098b610de4565b600073ffffffffffffffffffffffffffffffffffffffff168173ffffffffffffffffffffffffffffffffffffffff16036109fd5760006040517f1e4fbdf70000000000000000000000000000000000000000000000000000000081526004016109f49190611c9f565b60405180910390fd5b610a0681610e6b565b50565b60007f80ac58cd000000000000000000000000000000000000000000000000000000007bffffffffffffffffffffffffffffffffffffffffffffffffffffffff1916827bffffffffffffffffffffffffffffffffffffffffffffffffffffffff19161480610ad457507f5b5e139f000000000000000000000000000000000000000000000000000000007bffffffffffffffffffffffffffffffffffffffffffffffffffffffff1916827bffffffffffffffffffffffffffffffffffffffffffffffffffffffff1916145b80610ae45750610ae38261134b565b5b9050919050565b600080610af7836113b5565b9050600073ffffffffffffffffffffffffffffffffffffffff168173ffffffffffffffffffffffffffffffffffffffff1603610b6a57826040517f7e273289000000000000000000000000000000000000000000000000000000008152600401610b619190611db5565b60405180910390fd5b80915050919050565b60006004600083815260200190815260200160002060009054906101000a900473ffffffffffffffffffffffffffffffffffffffff169050919050565b600033905090565b610bc583838360016113f2565b505050565b600080610bd6846113b5565b9050600073ffffffffffffffffffffffffffffffffffffffff168373ffffffffffffffffffffffffffffffffffffffff1614610c1857610c178184866115b7565b5b600073ffffffffffffffffffffffffffffffffffffffff168173ffffffffffffffffffffffffffffffffffffffff1614610ca957610c5a6000856000806113f2565b6001600360008373ffffffffffffffffffffffffffffffffffffffff1673ffffffffffffffffffffffffffffffffffffffff168152602001908152602001600020600082825403925050819055505b600073ffffffffffffffffffffffffffffffffffffffff168573ffffffffffffffffffffffffffffffffffffffff1614610d2c576001600360008773ffffffffffffffffffffffffffffffffffffffff1673ffffffffffffffffffffffffffffffffffffffff168152602001908152602001600020600082825401925050819055505b846002600086815260200190815260200160002060006101000a81548173ffffffffffffffffffffffffffffffffffffffff021916908373ffffffffffffffffffffffffffffffffffffffff160217905550838573ffffffffffffffffffffffffffffffffffffffff168273ffffffffffffffffffffffffffffffffffffffff167fddf252ad1be2c89b69c2b068fc378daa952ba7f163c4a11628f55a4df523b3ef60405160405180910390a4809150509392505050565b610dec610bb0565b73ffffffffffffffffffffffffffffffffffffffff16610e0a6106ae565b73ffffffffffffffffffffffffffffffffffffffff1614610e6957610e2d610bb0565b6040517f118cdaa7000000000000000000000000000000000000000000000000000000008152600401610e609190611c9f565b60405180910390fd5b565b6000600760009054906101000a900473ffffffffffffffffffffffffffffffffffffffff16905081600760006101000a81548173ffffffffffffffffffffffffffffffffffffffff021916908373ffffffffffffffffffffffffffffffffffffffff1602179055508173ffffffffffffffffffffffffffffffffffffffff168173ffffffffffffffffffffffffffffffffffffffff167f8be0079c531659141344cd1fd0a4f28419497f9722a3daafe3b4186f6b6457e060405160405180910390a35050565b600073ffffffffffffffffffffffffffffffffffffffff168273ffffffffffffffffffffffffffffffffffffffff1603610fa257816040517f5b08ba18000000000000000000000000000000000000000000000000000000008152600401610f999190611c9f565b60405180910390fd5b80600560008573ffffffffffffffffffffffffffffffffffffffff1673ffffffffffffffffffffffffffffffffffffffff16815260200190815260200160002060008473ffffffffffffffffffffffffffffffffffffffff1673ffffffffffffffffffffffffffffffffffffffff16815260200190815260200160002060006101000a81548160ff0219169083151502179055508173ffffffffffffffffffffffffffffffffffffffff168373ffffffffffffffffffffffffffffffffffffffff167f17307eab39ab6107e8899845ad3d59bd9653f200f220920489ca2b5937696c31836040516110939190611b2e565b60405180910390a3505050565b60008373ffffffffffffffffffffffffffffffffffffffff163b111561124a578273ffffffffffffffffffffffffffffffffffffffff1663150b7a02868685856040518563ffffffff1660e01b81526004016110ff94939291906122e1565b6020604051808303816000875af192505050801561113b57506040513d601f19601f820116820180604052508101906111389190612342565b60015b6111bf573d806000811461116b576040519150601f19603f3d011682016040523d82523d6000602084013e611170565b606091505b5060008151036111b757836040517f64a0ae920000000000000000000000000000000000000000000000000000000081526004016111ae9190611c9f565b60405180910390fd5b805181602001fd5b63150b7a0260e01b7bffffffffffffffffffffffffffffffffffffffffffffffffffffffff1916817bffffffffffffffffffffffffffffffffffffffffffffffffffffffff19161461124857836040517f64a0ae9200000000000000000000000000000000000000000000000000000000815260040161123f9190611c9f565b60405180910390fd5b505b5050505050565b606060405180602001604052806000815250905090565b606061127382610aeb565b50600061127e611251565b9050600081511161129e57604051806020016040528060008152506112c9565b806112a88461167b565b6040516020016112b99291906121f1565b6040516020818303038152906040525b915050919050565b6112eb828260405180602001604052806000815250611749565b5050565b8060066000848152602001908152602001600020908161130f919061251b565b507ff8e1a15aba9398e019f0b49df1a4fde98ee17ae345cb5f6b5e2c27f5033e8ce78260405161133f9190611db5565b60405180910390a15050565b60007f01ffc9a7000000000000000000000000000000000000000000000000000000007bffffffffffffffffffffffffffffffffffffffffffffffffffffffff1916827bffffffffffffffffffffffffffffffffffffffffffffffffffffffff1916149050919050565b60006002600083815260200190815260200160002060009054906101000a900473ffffffffffffffffffffffffffffffffffffffff169050919050565b808061142b5750600073ffffffffffffffffffffffffffffffffffffffff168273ffffffffffffffffffffffffffffffffffffffff1614155b1561155f57600061143b84610aeb565b9050600073ffffffffffffffffffffffffffffffffffffffff168373ffffffffffffffffffffffffffffffffffffffff16141580156114a657508273ffffffffffffffffffffffffffffffffffffffff168173ffffffffffffffffffffffffffffffffffffffff1614155b80156114b957506114b781846108ef565b155b156114fb57826040517fa9fbf51f0000000000000000000000000000000000000000000000000000000081526004016114f29190611c9f565b60405180910390fd5b811561155d57838573ffffffffffffffffffffffffffffffffffffffff168273ffffffffffffffffffffffffffffffffffffffff167f8c5be1e5ebec7d5bd14f71427d1e84f3dd0314c0f7b2291e5b200ac8c7c3b92560405160405180910390a45b505b836004600085815260200190815260200160002060006101000a81548173ffffffffffffffffffffffffffffffffffffffff021916908373ffffffffffffffffffffffffffffffffffffffff16021790555050505050565b6115c283838361176d565b61167657600073ffffffffffffffffffffffffffffffffffffffff168373ffffffffffffffffffffffffffffffffffffffff160361163757806040517f7e27328900000000000000000000000000000000000000000000000000000000815260040161162e9190611db5565b60405180910390fd5b81816040517f177e802f00000000000000000000000000000000000000000000000000000000815260040161166d9291906125ed565b60405180910390fd5b505050565b60606000600161168a8461182e565b01905060008167ffffffffffffffff8111156116a9576116a8611e46565b5b6040519080825280601f01601f1916602001820160405280156116db5781602001600182028036833780820191505090505b509050600082602001820190505b60011561173e578080600190039150507f3031323334353637383961626364656600000000000000000000000000000000600a86061a8153600a858161173257611731612616565b5b049450600085036116e9575b819350505050919050565b6117538383611981565b61176861175e610bb0565b60008585856110a0565b505050565b60008073ffffffffffffffffffffffffffffffffffffffff168373ffffffffffffffffffffffffffffffffffffffff161415801561182557508273ffffffffffffffffffffffffffffffffffffffff168473ffffffffffffffffffffffffffffffffffffffff1614806117e657506117e584846108ef565b5b8061182457508273ffffffffffffffffffffffffffffffffffffffff1661180c83610b73565b73ffffffffffffffffffffffffffffffffffffffff16145b5b90509392505050565b600080600090507a184f03e93ff9f4daa797ed6e38ed64bf6a1f010000000000000000831061188c577a184f03e93ff9f4daa797ed6e38ed64bf6a1f010000000000000000838161188257611881612616565b5b0492506040810190505b6d04ee2d6d415b85acef810000000083106118c9576d04ee2d6d415b85acef810000000083816118bf576118be612616565b5b0492506020810190505b662386f26fc1000083106118f857662386f26fc1000083816118ee576118ed612616565b5b0492506010810190505b6305f5e1008310611921576305f5e100838161191757611916612616565b5b0492506008810190505b612710831061194657612710838161193c5761193b612616565b5b0492506004810190505b60648310611969576064838161195f5761195e612616565b5b0492506002810190505b600a8310611978576001810190505b80915050919050565b600073ffffffffffffffffffffffffffffffffffffffff168273ffffffffffffffffffffffffffffffffffffffff16036119f35760006040517f64a0ae920000000000000000000000000000000000000000000000000000000081526004016119ea9190611c9f565b60405180910390fd5b6000611a0183836000610bca565b9050600073ffffffffffffffffffffffffffffffffffffffff168173ffffffffffffffffffffffffffffffffffffffff1614611a755760006040517f73c6ac6e000000000000000000000000000000000000000000000000000000008152600401611a6c9190611c9f565b60405180910390fd5b505050565b6000604051905090565b600080fd5b600080fd5b60007fffffffff0000000000000000000000000000000000000000000000000000000082169050919050565b611ac381611a8e565b8114611ace57600080fd5b50565b600081359050611ae081611aba565b92915050565b600060208284031215611afc57611afb611a84565b5b6000611b0a84828501611ad1565b91505092915050565b60008115159050919050565b611b2881611b13565b82525050565b6000602082019050611b436000830184611b1f565b92915050565b600081519050919050565b600082825260208201905092915050565b60005b83811015611b83578082015181840152602081019050611b68565b60008484015250505050565b6000601f19601f8301169050919050565b6000611bab82611b49565b611bb58185611b54565b9350611bc5818560208601611b65565b611bce81611b8f565b840191505092915050565b60006020820190508181036000830152611bf38184611ba0565b905092915050565b6000819050919050565b611c0e81611bfb565b8114611c1957600080fd5b50565b600081359050611c2b81611c05565b92915050565b600060208284031215611c4757611c46611a84565b5b6000611c5584828501611c1c565b91505092915050565b600073ffffffffffffffffffffffffffffffffffffffff82169050919050565b6000611c8982611c5e565b9050919050565b611c9981611c7e565b82525050565b6000602082019050611cb46000830184611c90565b92915050565b611cc381611c7e565b8114611cce57600080fd5b50565b600081359050611ce081611cba565b92915050565b60008060408385031215611cfd57611cfc611a84565b5b6000611d0b85828601611cd1565b9250506020611d1c85828601611c1c565b9150509250929050565b600080600060608486031215611d3f57611d3e611a84565b5b6000611d4d86828701611cd1565b9350506020611d5e86828701611cd1565b9250506040611d6f86828701611c1c565b9150509250925092565b600060208284031215611d8f57611d8e611a84565b5b6000611d9d84828501611cd1565b91505092915050565b611daf81611bfb565b82525050565b6000602082019050611dca6000830184611da6565b92915050565b611dd981611b13565b8114611de457600080fd5b50565b600081359050611df681611dd0565b92915050565b60008060408385031215611e1357611e12611a84565b5b6000611e2185828601611cd1565b9250506020611e3285828601611de7565b9150509250929050565b600080fd5b600080fd5b7f4e487b7100000000000000000000000000000000000000000000000000000000600052604160045260246000fd5b611e7e82611b8f565b810181811067ffffffffffffffff82111715611e9d57611e9c611e46565b5b80604052505050565b6000611eb0611a7a565b9050611ebc8282611e75565b919050565b600067ffffffffffffffff821115611edc57611edb611e46565b5b611ee582611b8f565b9050602081019050919050565b82818337600083830152505050565b6000611f14611f0f84611ec1565b611ea6565b905082815260208101848484011115611f3057611f2f611e41565b5b611f3b848285611ef2565b509392505050565b600082601f830112611f5857611f57611e3c565b5b8135611f68848260208601611f01565b91505092915050565b60008060008060808587031215611f8b57611f8a611a84565b5b6000611f9987828801611cd1565b9450506020611faa87828801611cd1565b9350506040611fbb87828801611c1c565b925050606085013567ffffffffffffffff811115611fdc57611fdb611a89565b5b611fe887828801611f43565b91505092959194509250565b600067ffffffffffffffff82111561200f5761200e611e46565b5b61201882611b8f565b9050602081019050919050565b600061203861203384611ff4565b611ea6565b90508281526020810184848401111561205457612053611e41565b5b61205f848285611ef2565b509392505050565b600082601f83011261207c5761207b611e3c565b5b813561208c848260208601612025565b91505092915050565b6000602082840312156120ab576120aa611a84565b5b600082013567ffffffffffffffff8111156120c9576120c8611a89565b5b6120d584828501612067565b91505092915050565b600080604083850312156120f5576120f4611a84565b5b600061210385828601611cd1565b925050602061211485828601611cd1565b9150509250929050565b7f4e487b7100000000000000000000000000000000000000000000000000000000600052602260045260246000fd5b6000600282049050600182168061216557607f821691505b6020821081036121785761217761211e565b5b50919050565b60006060820190506121936000830186611c90565b6121a06020830185611da6565b6121ad6040830184611c90565b949350505050565b600081905092915050565b60006121cb82611b49565b6121d581856121b5565b93506121e5818560208601611b65565b80840191505092915050565b60006121fd82856121c0565b915061220982846121c0565b91508190509392505050565b7f4e487b7100000000000000000000000000000000000000000000000000000000600052601160045260246000fd5b600061224f82611bfb565b91507fffffffffffffffffffffffffffffffffffffffffffffffffffffffffffffffff820361228157612280612215565b5b600182019050919050565b600081519050919050565b600082825260208201905092915050565b60006122b38261228c565b6122bd8185612297565b93506122cd818560208601611b65565b6122d681611b8f565b840191505092915050565b60006080820190506122f66000830187611c90565b6123036020830186611c90565b6123106040830185611da6565b818103606083015261232281846122a8565b905095945050505050565b60008151905061233c81611aba565b92915050565b60006020828403121561235857612357611a84565b5b60006123668482850161232d565b91505092915050565b60008190508160005260206000209050919050565b60006020601f8301049050919050565b600082821b905092915050565b6000600883026123d17fffffffffffffffffffffffffffffffffffffffffffffffffffffffffffffffff82612394565b6123db8683612394565b95508019841693508086168417925050509392505050565b6000819050919050565b600061241861241361240e84611bfb565b6123f3565b611bfb565b9050919050565b6000819050919050565b612432836123fd565b61244661243e8261241f565b8484546123a1565b825550505050565b600090565b61245b61244e565b612466818484612429565b505050565b5b8181101561248a5761247f600082612453565b60018101905061246c565b5050565b601f8211156124cf576124a08161236f565b6124a984612384565b810160208510156124b8578190505b6124cc6124c485612384565b83018261246b565b50505b505050565b600082821c905092915050565b60006124f2600019846008026124d4565b1980831691505092915050565b600061250b83836124e1565b9150826002028217905092915050565b61252482611b49565b67ffffffffffffffff81111561253d5761253c611e46565b5b612547825461214d565b61255282828561248e565b600060209050601f8311600181146125855760008415612573578287015190505b61257d85826124ff565b8655506125e5565b601f1984166125938661236f565b60005b828110156125bb57848901518255600182019150602085019450602081019050612596565b868310156125d857848901516125d4601f8916826124e1565b8355505b6001600288020188555050505b505050505050565b60006040820190506126026000830185611c90565b61260f6020830184611da6565b9392505050565b7f4e487b7100000000000000000000000000000000000000000000000000000000600052601260045260246000fdfea26469706673582212206c6dfd4a25a2d7bbf9e2294b1b2bd7d4b762fea73459e418d6efe8c2fc1684b864736f6c63430008140033",
  "linkReferences": {},
  "deployedLinkReferences": {}
}