{
  "_format": "hh-sol-artifact-1",
  "contractName": "BlossomMarket",
  "sourceName": "contracts/BlossomMarket.sol",
  "abi": [
    {
      "anonymous": false,
      "inputs": [
        {
          "indexed": true,
          "internalType": "uint256",
          "name": "listingId",
          "type": "uint256"
        },
        {
          "indexed": false,
          "internalType": "address",
          "name": "buyer",
          "type": "address"
        },
        {
          "indexed": false,
          "internalType": "uint256",
          "name": "tokenId",
          "type": "uint256"
        },
        {
          "indexed": false,
          "internalType": "uint256",
          "name": "price",
          "type": "uint256"
        }
      ],
      "name": "Bought",
      "type": "event"
    },
    {
      "anonymous": false,
      "inputs": [
        {
          "indexed": true,
          "internalType": "uint256",
          "name": "listingId",
          "type": "uint256"
        },
        {
          "indexed": false,
          "internalType": "address",
          "name": "seller",
          "type": "address"
        },
        {
          "indexed": false,
          "internalType": "uint256",
          "name": "tokenId",
          "type": "uint256"
        },
        {
          "indexed": false,
          "internalType": "uint256",
          "name": "price",
          "type": "uint256"
        }
      ],
      "name": "Listed",
      "type": "event"
    },
    {
      "inputs": [
        {
          "internalType": "uint256",
          "name": "listingId",
          "type": "uint256"
        }
      ],
      "name": "buyNFT",
      "outputs": [],
      "stateMutability": "payable",
      "type": "function"
    },
    {
      "inputs": [],
      "name": "getAllListings",
      "outputs": [
        {
          "components": [
            {
              "internalType": "address",
              "name": "seller",
              "type": "address"
            },
            {
              "internalType": "address",
              "name": "tokenAddress",
              "type": "address"
            },
            {
              "internalType": "uint256",
              "name": "tokenId",
              "type": "uint256"
            },
            {
              "internalType": "uint256",
              "name": "price",
              "type": "uint256"
            },
            {
              "internalType": "bool",
              "name": "sold",
              "type": "bool"
            }
          ],
          "internalType": "struct BlossomMarket.Listing[]",
          "name": "",
          "type": "tuple[]"
        }
      ],
      "stateMutability": "view",
      "type": "function"
    },
    {
      "inputs": [
        {
          "internalType": "address",
          "name": "tokenAddress",
          "type": "address"
        },
        {
          "internalType": "uint256",
          "name": "tokenId",
          "type": "uint256"
        },
        {
          "internalType": "uint256",
          "name": "price",
          "type": "uint256"
        }
      ],
      "name": "listNFT",
      "outputs": [],
      "stateMutability": "nonpayable",
      "type": "function"
    },
    {
      "inputs": [
        {
          "internalType": "uint256",
          "name": "",
          "type": "uint256"
        }
      ],
      "name": "listings",
      "outputs": [
        {
          "internalType": "address",
          "name": "seller",
          "type": "address"
        },
        {
          "internalType": "address",
          "name": "tokenAddress",
          "type": "address"
        },
        {
          "internalType": "uint256",
          "name": "tokenId",
          "type": "uint256"
        },
        {
          "internalType": "uint256",
          "name": "price",
          "type": "uint256"
        },
        {
          "internalType": "bool",
          "name": "sold",
          "type": "bool"
        }
      ],
      "stateMutability": "view",
      "type": "function"
    }
  ],
  "bytecode": "0x608060405234801561001057600080fd5b50610d86806100206000396000f3fe60806040526004361061003f5760003560e01c806351ed828814610044578063ad05f1b414610060578063ae73ccec14610089578063de74e57b146100b4575b600080fd5b61005e600480360381019061005991906107ce565b6100f5565b005b34801561006c57600080fd5b5061008760048036038101906100829190610859565b610342565b005b34801561009557600080fd5b5061009e6105c6565b6040516100ab91906109fc565b60405180910390f35b3480156100c057600080fd5b506100db60048036038101906100d691906107ce565b610700565b6040516100ec959493929190610a4b565b60405180910390f35b600080828154811061010a57610109610a9e565b5b906000526020600020906005020190508060040160009054906101000a900460ff161561016c576040517f08c379a000000000000000000000000000000000000000000000000000000000815260040161016390610b2a565b60405180910390fd5b80600301543410156101b3576040517f08c379a00000000000000000000000000000000000000000000000000000000081526004016101aa90610b96565b60405180910390fd5b60018160040160006101000a81548160ff0219169083151502179055508060010160009054906101000a900473ffffffffffffffffffffffffffffffffffffffff1673ffffffffffffffffffffffffffffffffffffffff166342842e0e8260000160009054906101000a900473ffffffffffffffffffffffffffffffffffffffff163384600201546040518463ffffffff1660e01b815260040161025993929190610bb6565b600060405180830381600087803b15801561027357600080fd5b505af1158015610287573d6000803e3d6000fd5b505050508060000160009054906101000a900473ffffffffffffffffffffffffffffffffffffffff1673ffffffffffffffffffffffffffffffffffffffff166108fc82600301549081150290604051600060405180830381858888f193505050501580156102f9573d6000803e3d6000fd5b50817ffacd5cf4a59fb843cae84344ea28fde6a2663600d66798f530d16925c0da0073338360020154846003015460405161033693929190610bed565b60405180910390a25050565b60008390503373ffffffffffffffffffffffffffffffffffffffff168173ffffffffffffffffffffffffffffffffffffffff16636352211e856040518263ffffffff1660e01b81526004016103979190610c24565b602060405180830381865afa1580156103b4573d6000803e3d6000fd5b505050506040513d601f19601f820116820180604052508101906103d89190610c54565b73ffffffffffffffffffffffffffffffffffffffff161461042e576040517f08c379a000000000000000000000000000000000000000000000000000000000815260040161042590610ccd565b60405180910390fd5b60006040518060a001604052803373ffffffffffffffffffffffffffffffffffffffff1681526020018673ffffffffffffffffffffffffffffffffffffffff16815260200185815260200184815260200160001515815250908060018154018082558091505060019003906000526020600020906005020160009091909190915060008201518160000160006101000a81548173ffffffffffffffffffffffffffffffffffffffff021916908373ffffffffffffffffffffffffffffffffffffffff16021790555060208201518160010160006101000a81548173ffffffffffffffffffffffffffffffffffffffff021916908373ffffffffffffffffffffffffffffffffffffffff160217905550604082015181600201556060820151816003015560808201518160040160006101000a81548160ff021916908315150217905550505060016000805490506105859190610d1c565b7f98868c46d49b200d82c273c9f28d73265826ca6567690262736450563dfff64c3385856040516105b893929190610bed565b60405180910390a250505050565b60606000805480602002602001604051908101604052809291908181526020016000905b828210156106f757838290600052602060002090600502016040518060a00160405290816000820160009054906101000a900473ffffffffffffffffffffffffffffffffffffffff1673ffffffffffffffffffffffffffffffffffffffff1673ffffffffffffffffffffffffffffffffffffffff1681526020016001820160009054906101000a900473ffffffffffffffffffffffffffffffffffffffff1673ffffffffffffffffffffffffffffffffffffffff1673ffffffffffffffffffffffffffffffffffffffff16815260200160028201548152602001600382015481526020016004820160009054906101000a900460ff161515151581525050815260200190600101906105ea565b50505050905090565b6000818154811061071057600080fd5b90600052602060002090600502016000915090508060000160009054906101000a900473ffffffffffffffffffffffffffffffffffffffff16908060010160009054906101000a900473ffffffffffffffffffffffffffffffffffffffff16908060020154908060030154908060040160009054906101000a900460ff16905085565b600080fd5b6000819050919050565b6107ab81610798565b81146107b657600080fd5b50565b6000813590506107c8816107a2565b92915050565b6000602082840312156107e4576107e3610793565b5b60006107f2848285016107b9565b91505092915050565b600073ffffffffffffffffffffffffffffffffffffffff82169050919050565b6000610826826107fb565b9050919050565b6108368161081b565b811461084157600080fd5b50565b6000813590506108538161082d565b92915050565b60008060006060848603121561087257610871610793565b5b600061088086828701610844565b9350506020610891868287016107b9565b92505060406108a2868287016107b9565b9150509250925092565b600081519050919050565b600082825260208201905092915050565b6000819050602082019050919050565b6108e18161081b565b82525050565b6108f081610798565b82525050565b60008115159050919050565b61090b816108f6565b82525050565b60a08201600082015161092760008501826108d8565b50602082015161093a60208501826108d8565b50604082015161094d60408501826108e7565b50606082015161096060608501826108e7565b5060808201516109736080850182610902565b50505050565b60006109858383610911565b60a08301905092915050565b6000602082019050919050565b60006109a9826108ac565b6109b381856108b7565b93506109be836108c8565b8060005b838110156109ef5781516109d68882610979565b97506109e183610991565b9250506001810190506109c2565b5085935050505092915050565b60006020820190508181036000830152610a16818461099e565b905092915050565b610a278161081b565b82525050565b610a3681610798565b82525050565b610a45816108f6565b82525050565b600060a082019050610a606000830188610a1e565b610a6d6020830187610a1e565b610a7a6040830186610a2d565b610a876060830185610a2d565b610a946080830184610a3c565b9695505050505050565b7f4e487b7100000000000000000000000000000000000000000000000000000000600052603260045260246000fd5b600082825260208201905092915050565b7f416c726561647920736f6c640000000000000000000000000000000000000000600082015250565b6000610b14600c83610acd565b9150610b1f82610ade565b602082019050919050565b60006020820190508181036000830152610b4381610b07565b9050919050565b7f4e6f7420656e6f75676820455448000000000000000000000000000000000000600082015250565b6000610b80600e83610acd565b9150610b8b82610b4a565b602082019050919050565b60006020820190508181036000830152610baf81610b73565b9050919050565b6000606082019050610bcb6000830186610a1e565b610bd86020830185610a1e565b610be56040830184610a2d565b949350505050565b6000606082019050610c026000830186610a1e565b610c0f6020830185610a2d565b610c1c6040830184610a2d565b949350505050565b6000602082019050610c396000830184610a2d565b92915050565b600081519050610c4e8161082d565b92915050565b600060208284031215610c6a57610c69610793565b5b6000610c7884828501610c3f565b91505092915050565b7f4e6f74204e4654206f776e657200000000000000000000000000000000000000600082015250565b6000610cb7600d83610acd565b9150610cc282610c81565b602082019050919050565b60006020820190508181036000830152610ce681610caa565b9050919050565b7f4e487b7100000000000000000000000000000000000000000000000000000000600052601160045260246000fd5b6000610d2782610798565b9150610d3283610798565b9250828203905081811115610d4a57610d49610ced565b5b9291505056fea264697066735822122083f80545ded00f649e4765ac38a39e007848448b6bdad06e17c85fc6e994943364736f6c63430008140033",
  "linkReferences": {},
  "deployedLinkReferences": {}
}