{
  "_format": "hh-sol-artifact-1",
  "contractName": "BlossomMarket",
  "sourceName": "contracts/BlossomMarket.sol",
  "abi": [
    {
      "anonymous": false,
      "inputs": [
        {
          "indexed": true,
          "internalType": "uint256",
          "name": "listingId",
          "type": "uint256"
        },
        {
          "indexed": false,
          "internalType": "address",
          "name": "buyer",
          "type": "address"
        },
        {
          "indexed": false,
          "internalType": "uint256",
          "name": "tokenId",
          "type": "uint256"
        },
        {
          "indexed": false,
          "internalType": "uint256",
          "name": "price",
          "type": "uint256"
        }
      ],
      "name": "Bought",
      "type": "event"
    },
    {
      "anonymous": false,
      "inputs": [
        {
          "indexed": true,
          "internalType": "uint256",
          "name": "listingId",
          "type": "uint256"
        },
        {
          "indexed": false,
          "internalType": "address",
          "name": "seller",
          "type": "address"
        },
        {
          "indexed": false,
          "internalType": "uint256",
          "name": "tokenId",
          "type": "uint256"
        },
        {
          "indexed": false,
          "internalType": "uint256",
          "name": "price",
          "type": "uint256"
        }
      ],
      "name": "Listed",
      "type": "event"
    },
    {
      "anonymous": false,
      "inputs": [
        {
          "indexed": true,
          "internalType": "address",
          "name": "user",
          "type": "address"
        },
        {
          "indexed": false,
          "internalType": "uint256",
          "name": "amount",
          "type": "uint256"
        }
      ],
      "name": "Staked",
      "type": "event"
    },
    {
      "anonymous": false,
      "inputs": [
        {
          "indexed": true,
          "internalType": "address",
          "name": "voter",
          "type": "address"
        },
        {
          "indexed": false,
          "internalType": "string",
          "name": "proposal",
          "type": "string"
        }
      ],
      "name": "Voted",
      "type": "event"
    },
    {
      "inputs": [
        {
          "internalType": "uint256",
          "name": "listingId",
          "type": "uint256"
        }
      ],
      "name": "buyNFT",
      "outputs": [],
      "stateMutability": "payable",
      "type": "function"
    },
    {
      "inputs": [],
      "name": "getAllListings",
      "outputs": [
        {
          "components": [
            {
              "internalType": "address",
              "name": "seller",
              "type": "address"
            },
            {
              "internalType": "address",
              "name": "tokenAddress",
              "type": "address"
            },
            {
              "internalType": "uint256",
              "name": "tokenId",
              "type": "uint256"
            },
            {
              "internalType": "uint256",
              "name": "price",
              "type": "uint256"
            },
            {
              "internalType": "bool",
              "name": "sold",
              "type": "bool"
            }
          ],
          "internalType": "struct BlossomMarket.Listing[]",
          "name": "",
          "type": "tuple[]"
        }
      ],
      "stateMutability": "view",
      "type": "function"
    },
    {
      "inputs": [
        {
          "internalType": "address",
          "name": "",
          "type": "address"
        }
      ],
      "name": "hasVoted",
      "outputs": [
        {
          "internalType": "bool",
          "name": "",
          "type": "bool"
        }
      ],
      "stateMutability": "view",
      "type": "function"
    },
    {
      "inputs": [
        {
          "internalType": "address",
          "name": "tokenAddress",
          "type": "address"
        },
        {
          "internalType": "uint256",
          "name": "tokenId",
          "type": "uint256"
        },
        {
          "internalType": "uint256",
          "name": "price",
          "type": "uint256"
        }
      ],
      "name": "listNFT",
      "outputs": [],
      "stateMutability": "nonpayable",
      "type": "function"
    },
    {
      "inputs": [
        {
          "internalType": "uint256",
          "name": "",
          "type": "uint256"
        }
      ],
      "name": "listings",
      "outputs": [
        {
          "internalType": "address",
          "name": "seller",
          "type": "address"
        },
        {
          "internalType": "address",
          "name": "tokenAddress",
          "type": "address"
        },
        {
          "internalType": "uint256",
          "name": "tokenId",
          "type": "uint256"
        },
        {
          "internalType": "uint256",
          "name": "price",
          "type": "uint256"
        },
        {
          "internalType": "bool",
          "name": "sold",
          "type": "bool"
        }
      ],
      "stateMutability": "view",
      "type": "function"
    },
    {
      "inputs": [],
      "name": "stake",
      "outputs": [],
      "stateMutability": "payable",
      "type": "function"
    },
    {
      "inputs": [
        {
          "internalType": "address",
          "name": "",
          "type": "address"
        }
      ],
      "name": "stakedBalance",
      "outputs": [
        {
          "internalType": "uint256",
          "name": "",
          "type": "uint256"
        }
      ],
      "stateMutability": "view",
      "type": "function"
    },
    {
      "inputs": [
        {
          "internalType": "string",
          "name": "proposal",
          "type": "string"
        }
      ],
      "name": "vote",
      "outputs": [],
      "stateMutability": "nonpayable",
      "type": "function"
    },
    {
      "inputs": [
        {
          "internalType": "string",
          "name": "",
          "type": "string"
        }
      ],
      "name": "votes",
      "outputs": [
        {
          "internalType": "uint256",
          "name": "",
          "type": "uint256"
        }
      ],
      "stateMutability": "view",
      "type": "function"
    }
  ],
  "bytecode": "0x608060405234801561001057600080fd5b5061158d806100206000396000f3fe6080604052600436106100865760003560e01c8063ad05f1b411610059578063ad05f1b41461012b578063ae73ccec14610154578063b99ef1fa1461017f578063de74e57b146101bc578063fc36e15b146101fd57610086565b806309eef43e1461008b5780633a4b66f1146100c857806351ed8288146100d257806360217267146100ee575b600080fd5b34801561009757600080fd5b506100b260048036038101906100ad9190610bef565b610226565b6040516100bf9190610c37565b60405180910390f35b6100d0610246565b005b6100ec60048036038101906100e79190610c88565b61032f565b005b3480156100fa57600080fd5b5061011560048036038101906101109190610bef565b61057c565b6040516101229190610cc4565b60405180910390f35b34801561013757600080fd5b50610152600480360381019061014d9190610cdf565b610594565b005b34801561016057600080fd5b50610169610818565b6040516101769190610e76565b60405180910390f35b34801561018b57600080fd5b506101a660048036038101906101a19190610fde565b610952565b6040516101b39190610cc4565b60405180910390f35b3480156101c857600080fd5b506101e360048036038101906101de9190610c88565b610980565b6040516101f4959493929190611036565b60405180910390f35b34801561020957600080fd5b50610224600480360381019061021f9190610fde565b610a13565b005b60026020528060005260406000206000915054906101000a900460ff1681565b60003411610289576040517f08c379a0000000000000000000000000000000000000000000000000000000008152600401610280906110e6565b60405180910390fd5b34600160003373ffffffffffffffffffffffffffffffffffffffff1673ffffffffffffffffffffffffffffffffffffffff16815260200190815260200160002060008282546102d89190611135565b925050819055503373ffffffffffffffffffffffffffffffffffffffff167f9e71bc8eea02a63969f509818f2dafb9254532904319f9dbda79b67bd34a5f3d346040516103259190610cc4565b60405180910390a2565b600080828154811061034457610343611169565b5b906000526020600020906005020190508060040160009054906101000a900460ff16156103a6576040517f08c379a000000000000000000000000000000000000000000000000000000000815260040161039d906111e4565b60405180910390fd5b80600301543410156103ed576040517f08c379a00000000000000000000000000000000000000000000000000000000081526004016103e490611250565b60405180910390fd5b60018160040160006101000a81548160ff0219169083151502179055508060010160009054906101000a900473ffffffffffffffffffffffffffffffffffffffff1673ffffffffffffffffffffffffffffffffffffffff166342842e0e8260000160009054906101000a900473ffffffffffffffffffffffffffffffffffffffff163384600201546040518463ffffffff1660e01b815260040161049393929190611270565b600060405180830381600087803b1580156104ad57600080fd5b505af11580156104c1573d6000803e3d6000fd5b505050508060000160009054906101000a900473ffffffffffffffffffffffffffffffffffffffff1673ffffffffffffffffffffffffffffffffffffffff166108fc82600301549081150290604051600060405180830381858888f19350505050158015610533573d6000803e3d6000fd5b50817ffacd5cf4a59fb843cae84344ea28fde6a2663600d66798f530d16925c0da00733383600201548460030154604051610570939291906112a7565b60405180910390a25050565b60016020528060005260406000206000915090505481565b60008390503373ffffffffffffffffffffffffffffffffffffffff168173ffffffffffffffffffffffffffffffffffffffff16636352211e856040518263ffffffff1660e01b81526004016105e99190610cc4565b602060405180830381865afa158015610606573d6000803e3d6000fd5b505050506040513d601f19601f8201168201806040525081019061062a91906112f3565b73ffffffffffffffffffffffffffffffffffffffff1614610680576040517f08c379a00000000000000000000000000000000000000000000000000000000081526004016106779061136c565b60405180910390fd5b60006040518060a001604052803373ffffffffffffffffffffffffffffffffffffffff1681526020018673ffffffffffffffffffffffffffffffffffffffff16815260200185815260200184815260200160001515815250908060018154018082558091505060019003906000526020600020906005020160009091909190915060008201518160000160006101000a81548173ffffffffffffffffffffffffffffffffffffffff021916908373ffffffffffffffffffffffffffffffffffffffff16021790555060208201518160010160006101000a81548173ffffffffffffffffffffffffffffffffffffffff021916908373ffffffffffffffffffffffffffffffffffffffff160217905550604082015181600201556060820151816003015560808201518160040160006101000a81548160ff021916908315150217905550505060016000805490506107d7919061138c565b7f98868c46d49b200d82c273c9f28d73265826ca6567690262736450563dfff64c33858560405161080a939291906112a7565b60405180910390a250505050565b60606000805480602002602001604051908101604052809291908181526020016000905b8282101561094957838290600052602060002090600502016040518060a00160405290816000820160009054906101000a900473ffffffffffffffffffffffffffffffffffffffff1673ffffffffffffffffffffffffffffffffffffffff1673ffffffffffffffffffffffffffffffffffffffff1681526020016001820160009054906101000a900473ffffffffffffffffffffffffffffffffffffffff1673ffffffffffffffffffffffffffffffffffffffff1673ffffffffffffffffffffffffffffffffffffffff16815260200160028201548152602001600382015481526020016004820160009054906101000a900460ff1615151515815250508152602001906001019061083c565b50505050905090565b6003818051602081018201805184825260208301602085012081835280955050505050506000915090505481565b6000818154811061099057600080fd5b90600052602060002090600502016000915090508060000160009054906101000a900473ffffffffffffffffffffffffffffffffffffffff16908060010160009054906101000a900473ffffffffffffffffffffffffffffffffffffffff16908060020154908060030154908060040160009054906101000a900460ff16905085565b600260003373ffffffffffffffffffffffffffffffffffffffff1673ffffffffffffffffffffffffffffffffffffffff16815260200190815260200160002060009054906101000a900460ff1615610aa0576040517f08c379a0000000000000000000000000000000000000000000000000000000008152600401610a979061140c565b60405180910390fd5b6001600260003373ffffffffffffffffffffffffffffffffffffffff1673ffffffffffffffffffffffffffffffffffffffff16815260200190815260200160002060006101000a81548160ff021916908315150217905550600381604051610b08919061149d565b90815260200160405180910390206000815480929190610b27906114b4565b91905055503373ffffffffffffffffffffffffffffffffffffffff167fcb6783276e8a4347387036bbfea000268f0a4b1f8c46ac79980609f2af8d2acd82604051610b729190611535565b60405180910390a250565b6000604051905090565b600080fd5b600080fd5b600073ffffffffffffffffffffffffffffffffffffffff82169050919050565b6000610bbc82610b91565b9050919050565b610bcc81610bb1565b8114610bd757600080fd5b50565b600081359050610be981610bc3565b92915050565b600060208284031215610c0557610c04610b87565b5b6000610c1384828501610bda565b91505092915050565b60008115159050919050565b610c3181610c1c565b82525050565b6000602082019050610c4c6000830184610c28565b92915050565b6000819050919050565b610c6581610c52565b8114610c7057600080fd5b50565b600081359050610c8281610c5c565b92915050565b600060208284031215610c9e57610c9d610b87565b5b6000610cac84828501610c73565b91505092915050565b610cbe81610c52565b82525050565b6000602082019050610cd96000830184610cb5565b92915050565b600080600060608486031215610cf857610cf7610b87565b5b6000610d0686828701610bda565b9350506020610d1786828701610c73565b9250506040610d2886828701610c73565b9150509250925092565b600081519050919050565b600082825260208201905092915050565b6000819050602082019050919050565b610d6781610bb1565b82525050565b610d7681610c52565b82525050565b610d8581610c1c565b82525050565b60a082016000820151610da16000850182610d5e565b506020820151610db46020850182610d5e565b506040820151610dc76040850182610d6d565b506060820151610dda6060850182610d6d565b506080820151610ded6080850182610d7c565b50505050565b6000610dff8383610d8b565b60a08301905092915050565b6000602082019050919050565b6000610e2382610d32565b610e2d8185610d3d565b9350610e3883610d4e565b8060005b83811015610e69578151610e508882610df3565b9750610e5b83610e0b565b925050600181019050610e3c565b5085935050505092915050565b60006020820190508181036000830152610e908184610e18565b905092915050565b600080fd5b600080fd5b6000601f19601f8301169050919050565b7f4e487b7100000000000000000000000000000000000000000000000000000000600052604160045260246000fd5b610eeb82610ea2565b810181811067ffffffffffffffff82111715610f0a57610f09610eb3565b5b80604052505050565b6000610f1d610b7d565b9050610f298282610ee2565b919050565b600067ffffffffffffffff821115610f4957610f48610eb3565b5b610f5282610ea2565b9050602081019050919050565b82818337600083830152505050565b6000610f81610f7c84610f2e565b610f13565b905082815260208101848484011115610f9d57610f9c610e9d565b5b610fa8848285610f5f565b509392505050565b600082601f830112610fc557610fc4610e98565b5b8135610fd5848260208601610f6e565b91505092915050565b600060208284031215610ff457610ff3610b87565b5b600082013567ffffffffffffffff81111561101257611011610b8c565b5b61101e84828501610fb0565b91505092915050565b61103081610bb1565b82525050565b600060a08201905061104b6000830188611027565b6110586020830187611027565b6110656040830186610cb5565b6110726060830185610cb5565b61107f6080830184610c28565b9695505050505050565b600082825260208201905092915050565b7f4d7573742073656e642045544820746f207374616b6500000000000000000000600082015250565b60006110d0601683611089565b91506110db8261109a565b602082019050919050565b600060208201905081810360008301526110ff816110c3565b9050919050565b7f4e487b7100000000000000000000000000000000000000000000000000000000600052601160045260246000fd5b600061114082610c52565b915061114b83610c52565b925082820190508082111561116357611162611106565b5b92915050565b7f4e487b7100000000000000000000000000000000000000000000000000000000600052603260045260246000fd5b7f416c726561647920736f6c640000000000000000000000000000000000000000600082015250565b60006111ce600c83611089565b91506111d982611198565b602082019050919050565b600060208201905081810360008301526111fd816111c1565b9050919050565b7f4e6f7420656e6f75676820455448000000000000000000000000000000000000600082015250565b600061123a600e83611089565b915061124582611204565b602082019050919050565b600060208201905081810360008301526112698161122d565b9050919050565b60006060820190506112856000830186611027565b6112926020830185611027565b61129f6040830184610cb5565b949350505050565b60006060820190506112bc6000830186611027565b6112c96020830185610cb5565b6112d66040830184610cb5565b949350505050565b6000815190506112ed81610bc3565b92915050565b60006020828403121561130957611308610b87565b5b6000611317848285016112de565b91505092915050565b7f4e6f74204e4654206f776e657200000000000000000000000000000000000000600082015250565b6000611356600d83611089565b915061136182611320565b602082019050919050565b6000602082019050818103600083015261138581611349565b9050919050565b600061139782610c52565b91506113a283610c52565b92508282039050818111156113ba576113b9611106565b5b92915050565b7f416c726561647920766f74656400000000000000000000000000000000000000600082015250565b60006113f6600d83611089565b9150611401826113c0565b602082019050919050565b60006020820190508181036000830152611425816113e9565b9050919050565b600081519050919050565b600081905092915050565b60005b83811015611460578082015181840152602081019050611445565b60008484015250505050565b60006114778261142c565b6114818185611437565b9350611491818560208601611442565b80840191505092915050565b60006114a9828461146c565b915081905092915050565b60006114bf82610c52565b91507fffffffffffffffffffffffffffffffffffffffffffffffffffffffffffffffff82036114f1576114f0611106565b5b600182019050919050565b60006115078261142c565b6115118185611089565b9350611521818560208601611442565b61152a81610ea2565b840191505092915050565b6000602082019050818103600083015261154f81846114fc565b90509291505056fea2646970667358221220842c4c89c98dc3df4df40734b0a38223e540061d4b80db3000911cdfef8ce47264736f6c63430008140033",
  "linkReferences": {},
  "deployedLinkReferences": {}
}